:100000000C9479000C9496000C9496000C94960035
:100010000C9496000C9496000C9496000C94960008
:100020000C9496000C9496000C9496000C949600F8
:100030000C9496000C9496000C9496000C949600E8
:100040000C9496000C9496000C9496000C949600D8
:100050000C9496000C9496000C9496000C949600C8
:100060000C9496000C9496000C9496000C949600B8
:100070000C9496000C94FA000C9496000C94960044
:100080000C9496000C9496000C9496000C94960098
:100090000C9496000C9496000C9496000C94960088
:1000A0000C9496000C9496000C949600780B7A0BA6
:1000B0007C0B7E0B800B820B840B860B880B8A0BD0
:1000C000E60BE80BEA0BEC0BEE0BF00BF20BF40B70
:1000D000F60BF80B05A84CCDB2D44EB93836A902B0
:1000E0000C50B9918688083CA6AAAA2ABE00000036
:1000F000803F11241FBECFEFDAE0DEBFCDBF15E099
:10010000A0E0B1E0E6E1F8E302C005900D92AE3266
:10011000B107D9F727E0AEE2B5E001C01D92A135E5
:10012000B207E1F70E94C1170C94091C0C9400005F
:1001300084B18C7F84B9ECE7F0E0808180668083B5
:100140008CE880937A0078940895189B0CC02FEF68
:1001500080E792E0215080409040E1F700C000002D
:1001600083B1817001C080E090E00895199B0DC0BB
:100170002FEF80E792E0215080409040E1F700C0EF
:10018000000083B18695817001C080E090E0089501
:1001900080913105811107C00E94A500019719F4D3
:1001A00081E08093310580913105813049F40E94CE
:1001B000A500892B29F41092310582E090E0089582
:1001C000089580913005811107C00E94B600019703
:1001D00019F481E08093300580913005813049F435
:1001E0000E94B600892B29F41092300582E090E03D
:1001F000089508951F920F920FB60F9211242F9316
:100200003F934F935F936F937F938F939F93AF939E
:10021000BF93EF93FF936091790070E0605871098C
:10022000882777FD8095982F0E943B192DEC3CEC98
:100230004CE451E40E94A01890580E940819161628
:10024000170614F46150710970932F0560932E0501
:1002500020912E0530912F0545E0429FC001439F1C
:10026000900D112490932F0580932E05FF91EF910F
:10027000BF91AF919F918F917F916F915F914F91BE
:100280003F912F910F900FBE0F901F901895EAE7A6
:10029000F0E0808180648083089580912E059091A4
:1002A0002F0508958FE40E9429020E949A020C945F
:1002B00098000E941B0261E08EE00E945B028DECC0
:1002C00094E00E948E0263E08EE00E945B0287ED64
:1002D00094E00E948E0264E087E00E945B0280EE60
:1002E00094E00C948E02CF930E941B02C3E362E061
:1002F00087E20E945B028C2F0E9468022FEF89E642
:1003000098E1215080409040E1F700C00000C150CA
:10031000C03369F7CF91089585B5856085BD08958F
:10032000CF930E9459010E948C01A89B02C0CF5F0D
:10033000A89A0E94C800029721F00E94E10002974B
:10034000A1F78C2F992787FD90950E94AA1B0E94E8
:10035000730181E090E0CF9108950E941B0262E05A
:1003600087E00E945B028CEE94E00E948E022FEFE9
:1003700080E792E0215080409040E1F700C000000B
:100380000E94A6020E94AB020E94C800029731F0B0
:100390000E94E100029759F70E941B020E94A202EC
:1003A0000E94A4028FEF9FEF08950E941B0262E05B
:1003B00080E00E945B0288EF94E00E948E022FEFA3
:1003C00080E792E0215080409040E1F700C00000BB
:1003D0000E94A6020E94AB020E94C800029721F070
:1003E0000E94E100029759F70E941B020E94A2029C
:1003F0000E94A4028FEF9FEF089525B130E2839F02
:10040000C00111242F7D282B25B95F9887E090E04B
:1004100070E08F989B01082E02C0359527950A94AD
:10042000E2F720FF02C02E9A01C02E988F9A019702
:1004300080F75F9A0895CF93DF93C9EFD1E060E032
:1004400081E00E94FD0121972097C9F7DF91CF91AC
:100450000895CF93C82F579A249A259A269A879A57
:100460002C985F9A2C9A61E280E00E94FD016C2F2B
:10047000606880E00E94FD0164E080E00E94FD0170
:1004800064E180E00E94FD016CE080E00E94FD01DB
:1004900060E280E00E94FD016CE080E00E94FD01CE
:1004A00060E480E00E94FD0160E880E00E94FD01C0
:1004B000CF910C941B02CF93C62F682F606880E009
:1004C0000E94FD016C2F606480E0CF910C94FD01CF
:1004D0000F931F93CF93DF93082F60E081E00E947A
:1004E000FD0185E0089F80011124035F1E4FC0E0DD
:1004F000D0E0F801EC0FFD1FE05AF109608181E0C6
:100500000E94FD012196C530D10599F760E081E098
:10051000DF91CF911F910F910C94FD01CF93DF9349
:10052000EC018991882319F00E946802FACFDF91CB
:10053000CF91089584B18C6084B908952A9A089562
:100540002B9A08952A9808952B98089585B194E0E0
:10055000892785B9089585B198E0892785B90895D7
:100560001F93CF93DF93EC011AE00E94430920917F
:100570004705309148054091490550914A056091E1
:100580004B0570914C0580914D0590914E050E9450
:1005900001120E9447010E944D0180934D059093E6
:1005A0004E052091470530914805409149055091ED
:1005B0004A0560914B0570914C050E94090F0E94FD
:1005C000C800029769F4CE010E94CF0F8981865F2F
:1005D000813514F4898301C01983CE010E949D0CDA
:1005E0000E94E100029709F6DF91CF911F910895D3
:1005F000FF920F931F93CF93DF9300D000D01F92F1
:10060000CDB7DEB78C01FC0120813181428153815D
:1006100064817581868197810E94A708942F752F28
:10062000862F29833A834B835C836D83A901692FCD
:100630000E94380E0E9443098AE0F82E0E94430966
:1006400020914705309148054091490550914A0550
:1006500060914B0570914C0580914D0590914E0530
:100660000E9401120E9447010E944D0180934D0596
:1006700090934E05209147053091480540914905DA
:1006800050914A0560914B0570914C050E94090FED
:100690000E94A5000197C9F4F80167816E5F678326
:1006A0006B8365364CF049815A817C818D810E9433
:1006B0003311F801F782FB8249815A816B817C8179
:1006C0008D810E94380E0E9443090E94E10002972A
:1006D00009F0B4CF49815A816B817C818D810E9460
:1006E00033110F900F900F900F900F90DF91CF91DB
:1006F0001F910F91FF900C944309EF92FF920F937B
:100700001F93CF93DF938C017B01EA0146175707B4
:10071000A1F00E94A51BBE01609570956E0D7F1D16
:100720000E94D517C80FD91FCE016AE070E00E9461
:10073000D517009711F0C81BD90B9AE0F92EF801D4
:100740008181992787FD90958C179D0709F443C0F7
:1007500020914705309148054091490550914A053F
:1007600060914B0570914C0580914D0590914E051F
:100770000E9401120E9447010E944D0180934D0585
:1007800090934E05209147053091480540914905C9
:1007900050914A0560914B0570914C050E94090FDC
:1007A000C8010E94CF0FF8018181865F813514F462
:1007B000818302C0F801F182C8010E949D0C0E9451
:1007C0004309FFEF20E782E0F15020408040E1F74D
:1007D00000C00000B4CFDF91CF911F910F91FF9027
:1007E000EF900895CF92DF92EF92FF920F931F93B5
:1007F000CF93DF9300D000D01F92CDB7DEB78C012E
:100800006B017A0146175707A1F00E94A51BB7019B
:10081000609570956C0D7D1D0E94D517E80EF91E30
:10082000E0FE07C0C70162E070E00E94D517E81A39
:10083000F90AF801208131814281538164817581F7
:10084000868197810E94A708942F752F862F298370
:100850003A834B835C836D83A901692F0E94380E14
:100860000E9443092AE0D22EF8018781992787FD4B
:1008700090958E159F0509F44AC020914705309147
:1008800048054091490550914A0560914B0570918A
:100890004C0580914D0590914E050E9401120E94D9
:1008A00047010E944D0180934D0590934E05209184
:1008B0004705309148054091490550914A0560919E
:1008C0004B0570914C050E94090F49815A816B813B
:1008D0007C818D810E943311F80187818E5F85367E
:1008E00014F4878302C0F801D782F80167816B8313
:1008F00049815A817C818D810E94380E0E94430972
:100900008FE39CE90197F1F700C00000ADCF49816A
:100910005A816B817C818D810E9433110F900F90E1
:100920000F900F900F90DF91CF911F910F91FF903B
:10093000EF90DF90CF900C94430980914F059091F8
:1009400050050E94010E4091350550913605609189
:10095000370570913805809139050E94670C4091E8
:100960003A0550913B0560913C0570913D058091A1
:100970003E050E94670C81E595E00E949D0C8FE387
:1009800095E00C949D0CCF92DF92EF92FF920F9323
:100990001F93CF93DF93CDB7DEB7A2970FB6F8942E
:1009A000DEBF0FBECDBFFC012F8B388F498F5A8F12
:1009B0006B8FCC8EDD8EEE8EFF8E08A300811181B1
:1009C000228133814481558166817781CE010196F0
:1009D0000E94C508CE0101960E941C132DB73EB798
:1009E000265131090FB6F8943EBF0FBE2DBFADB7EB
:1009F000BEB7119686E1FE01319601900D928A955F
:100A0000E1F70E940D0C0FB6F894DEBF0FBECDBF0C
:100A100016E105E00E949D040E94430920914705CC
:100A2000309148054091490550914A0560914B0528
:100A300070914C0580914D0590914E050E940112D8
:100A40000E9447010E944D0180934D0590934E05F1
:100A500020914705309148054091490550914A053C
:100A600060914B0570914C050E94090F2DB73EB760
:100A7000265131090FB6F8943EBF0FBE2DBFADB75A
:100A8000BEB71196FE013196812F01900D928A9585
:100A9000E1F70E94750F60914D0570914E0544E19C
:100AA00050E0CE0101960E947B1464E170E0CE011B
:100AB00001960E94E9148DB79EB746970FB6F89439
:100AC0009EBF0FBE8DBFADB7BEB71196FE0131966A
:100AD000812F01900D928A95E1F70E940D0C0FB6BF
:100AE000F894DEBF0FBECDBF809150058F938091EB
:100AF0004F058F9300D000D01F92ADB7BEB71196AF
:100B0000FE017C96802F01900D928A95E1F700D02E
:100B100000D01F92ADB7BEB71196FE017796802F19
:100B200001900D928A95E1F78DB79EB746970FB663
:100B3000F8949EBF0FBE8DBFADB7BEB71196FE0134
:100B40003196812F01900D928A95E1F70E9443150D
:100B50000FB6F894DEBF0FBECDBF8F3F3FEF9307B8
:100B600009F458CF2DB73EB7265131090FB6F89486
:100B70003EBF0FBE2DBFADB7BEB7119626E1FE0139
:100B8000319601900D922A95E1F789A39AA30E94CC
:100B9000750F0E949D040E9443090FB6F894DEBFB2
:100BA0000FBECDBF89A19AA1A2960FB6F894DEBF61
:100BB0000FBECDBFDF91CF911F910F91FF90EF90AE
:100BC000DF90CF900895CF92DF92EF92FF920F9334
:100BD000CF93DF93EC0148E150E067E070E085E0FF
:100BE00095E00E945F0A0E9443092FEF89E698E191
:100BF000215080409040E1F700C0000048E150E003
:100C000067E070E085E095E00E94C80A0E94430911
:100C1000CE010E94B002CE010E94F802C0903505BC
:100C2000D0903605E0903705F090380500913905F1
:100C300020913A0530913B0540913C0550913D058E
:100C400060913E05CE010E94C304DF91CF910F91C8
:100C5000FF90EF90DF90CF9008955F926F927F9218
:100C60008F929F92AF92BF92CF92DF92EF92FF92BC
:100C70000F931F93CF93DF93CDB7DEB728970FB6AF
:100C8000F894DEBF0FBECDBF4C0148E150E06AE0F2
:100C900070E082E195E00E945F0A0E9443092FEF15
:100CA00089E698E1215080409040E1F700C00000C3
:100CB00048E150E06AE070E082E195E00E94C80AF5
:100CC0000E944309809134058111A3C060903A05C8
:100CD000772467FC7094209135058091370599271A
:100CE00087FD9095820F911D27FD9A95681A790AC4
:100CF000FAE0AF2EB12C5524539474E6C72ED12CB4
:100D00008E010F5F1F4F9E012B5F3F4F44E150E06C
:100D1000B501C6010E948B1300914D0510914E053F
:100D200029813A814B815C816D817E818F8198859B
:100D300073010E940A14019759F4A0923305C092DE
:100D4000320550923405C12CD12CE2E3AE2EB12CE9
:100D500022E0C21AD1088AE0C816D1048CF69AE0C3
:100D6000A90EB11C29E2A216B1043CF20E94A51BF7
:100D70008091330590E044978A30910514F48AE01D
:100D800090E090930801809307010E94A51B809139
:100D9000330590E044968135910514F080E590E0AC
:100DA0009093060180930501C0903205D12C0E94DA
:100DB000A51BEAE0F0E0BF010E94D51721EF3FEF4D
:100DC000281B390B220F331F2C0D3D1D2A303105F6
:100DD0002CF0309304012093030104C0F09304012C
:100DE000E0930301C0903205D12C0E94A51B6AE05C
:100DF00070E00E94D5170F96880F991F8C0D9D1DCE
:100E00008536910514F084E690E09093020180937A
:100E10000101409107015091080160910501709115
:100E20000601C4010E947D03409103015091040119
:100E30006091010170910201C4010E94F203C0900F
:100E40003A05D0903B05E0903C05F0903D050091BF
:100E50003E0520913505309136054091370550917A
:100E6000380560913905C4010E94C3046C0180916A
:100E70000001815080930001811117C080913205DB
:100E800090E090930401809303019093020180937A
:100E900001018091330590E0909308018093070150
:100EA000909306018093050133C00E94A51B93E037
:100EB000C916D104B9F50E94A51B8091330590E0B5
:100EC00020910701309108018217930724F4909331
:100ED000080180930701A0900301B09004010E94D3
:100EE000A51B6AE070E00E94D5179C01220F331FFA
:100EF0002A0D3B1D3093040120930301809132059C
:100F000090E08217930724F49093040180930301E7
:100F1000C60101970297C0F585E080930001109209
:100F2000340532C084E0C816D10491F70E94A51B95
:100F30008091330590E0209105013091060128173A
:100F4000390724F49093060180930501A0900101D4
:100F5000B09002010E94A51B6AE070E00E94D517C4
:100F6000880F991F9501281B390B3093020120939C
:100F700001018091320590E0281739074CF69093D3
:100F8000020180930101C4CFC60128960FB6F894E0
:100F9000DEBF0FBECDBFDF91CF911F910F91FF90AC
:100FA000EF90DF90CF90BF90AF909F908F907F9009
:100FB0006F905F90089578940E9465089093500513
:100FC00080934F050E9421092093470530934805DF
:100FD0004093490550934A0560934B0570934C0527
:100FE00080934D0590934E0561E080914F0590915F
:100FF00050050E946808942F752F862F2093350581
:101000003093360540933705509338056093390582
:10101000A901692F0E94840820935105309352053D
:1010200040935305509354056093550570935605AE
:1010300080935705909358056FEF80914F059091DD
:1010400050050E946808942F752F862F20933A052B
:1010500030933B0540933C0550933D0560933E051E
:10106000A901692F0E94840820933F053093400511
:1010700040934105509342056093430570934405A6
:1010800080934505909346050E949D040E94430964
:1010900081E595E00E94E3058130910529F40E94E5
:1010A000660982E090E00895029729F40E9466099B
:1010B00083E090E008958FE395E00E942D06813053
:1010C0009105A1F3029721F7EACF85E094E5089511
:1010D000CF93DF9300D000D01F92CDB7DEB733E0BF
:1010E000380F613019F026EF290F01C025E045E0E7
:1010F00053E070E080E090E00F900F900F900F9021
:101100000F90DF91CF910895CF93DF93CDB7DEB7E6
:101110002D970FB6F894DEBF0FBECDBF49878D87E0
:10112000752F462F67FD4F5F45958985480F65E010
:10113000640F25E03AE0572F8D859AE02D960FB683
:10114000F894DEBF0FBECDBFDF91CF910895CF934E
:10115000DF93CDB7DEB72D970FB6F894DEBF0FBE85
:10116000CDBF2EE135E03A8329833A81492F50E003
:1011700068E070E080E090E02D960FB6F894DEBF56
:101180000FBECDBFDF91CF9108958F929F92AF9206
:10119000BF92CF92DF92EF92FF920F931F93CF9364
:1011A000DF93CDB7DEB728970FB6F894DEBF0FBE3A
:1011B000CDBF7C01C42E062FD72E652F772767FD64
:1011C0007095872F972F0E943B194B015C010130CE
:1011D00039F46C2D772767FD7095872F972F0AC0FC
:1011E0006C2D772767FD709563507109882777FD0F
:1011F0008095982F0E943B1922E0F70120832183DC
:1012000024E122830383D4821583668377838087D6
:10121000918782869386A486B586C70128960FB6E5
:10122000F894DEBF0FBECDBFDF91CF911F910F911C
:10123000FF90EF90DF90CF90BF90AF909F908F90F6
:101240000895CF93DF93CDB7DEB728970FB6F89404
:10125000DEBF0FBECDBF24E235E03A8329831C8276
:101260001B821E821D823A815C817E8140E060E0AB
:101270008F81988528960FB6F894DEBF0FBECDBF3C
:10128000DF91CF9108950F931F93CF93DF9360E089
:1012900080E00E945B0209E515E0C0E0D0E0F801C3
:1012A000EC0FFD1F608181E00E94FD012696C83F82
:1012B00081E0D807A1F70F5F1F4F85E00F351807B2
:1012C00061F7DF91CF911F910F910895EEE5F5E061
:1012D000DF0115971C9211961C9211961C92119683
:1012E0001C9211961C921082369687E0E635F8071C
:1012F00079F70895262F2770621B90E0662319F076
:1013000068509F5FFBCF9630A0F4843590F436E0B0
:10131000839FF0011124E90FF11DE75AFA4F81E094
:1013200090E0022E01C0880F0A94EAF79081982B72
:1013300090830895262F2770621B90E0662319F092
:1013400068509F5FFBCF9630A8F4843598F436E060
:10135000839FF0011124E90FF11DE75AFA4F81E054
:1013600090E0022E01C0880F0A94EAF780959081E0
:101370009823908308958F929F92AF92BF92CF92BD
:10138000DF92EF92FF920F931F93CF93DF931F9201
:10139000CDB7DEB7B62E95E0899F70011124F70115
:1013A000E351FD4F7F01812C912C6701C80CD91CA2
:1013B00090EAC91AD10800E010E0A82CAB0CF601A5
:1013C000208130E0002E02C0359527950A94E2F77F
:1013D00020FF07C0602F640F8A2D49830E947A097D
:1013E00049810F5F1F4F0830110549F7FFEF8F1A32
:1013F0009F0A85E088169104C1F685E090E00F9081
:10140000DF91CF911F910F91FF90EF90DF90CF90E0
:10141000BF90AF909F908F9008958F929F92AF92C0
:10142000BF92CF92DF92EF92FF920F931F93CF93D1
:10143000DF931F92CDB7DEB7B62E95E0899F70017E
:101440001124F701E351FD4F7F01812C912C67019D
:10145000C80CD91C90EAC91AD10800E010E0A82CE9
:10146000AB0CF601208130E0002E02C035952795A7
:101470000A94E2F720FF07C0602F640F8A2D49838A
:101480000E949A0949810F5F1F4F0830110549F7E3
:10149000FFEF8F1A9F0A85E088169104C1F685E058
:1014A00090E00F90DF91CF911F910F91FF90EF90FF
:1014B000DF90CF90BF90AF909F908F9008956F92E4
:1014C0007F928F929F92AF92BF92CF92DF92EF92D4
:1014D000FF920F931F93CF93DF931F92CDB7DEB789
:1014E000B62E6C01E12CF12C85E0A82EB394F60108
:1014F00080818823E1F1612C712C8B2C8E0C00E013
:1015000010E0962C980CF6012081332727FD3095AA
:1015100020523109A29EF001A39EF00D1124E60D88
:10152000F71DE351FD4F208130E0002E02C03595BC
:1015300027950A94E2F720FF07C0602F640F892DDA
:1015400049830E947A0949810F5F1F4F08301105B6
:10155000D1F6FFEF6F1A7F0A85E06816710479F6FD
:10156000E6E0EE0EF11CFFEFCF1ADF0AC0CFC70195
:101570000F90DF91CF911F910F91FF90EF90DF902F
:10158000CF90BF90AF909F908F907F906F90089575
:101590006F927F928F929F92AF92BF92CF92DF9283
:1015A000EF92FF920F931F93CF93DF931F92CDB7CC
:1015B000DEB7B62E6C01E12CF12C95E0A92EB39488
:1015C000F60180818823E1F1612C712C8B2C8E0C2B
:1015D00000E010E0962C980CF6012081332727FDBF
:1015E000309520523109A29EF001A39EF00D1124E6
:1015F000E60DF71DE351FD4F208130E0002E02C0C3
:10160000359527950A94E2F720FF07C0602F640FF5
:10161000892D49830E949A0949810F5F1F4F083025
:101620001105D1F6FFEF6F1A7F0A85E06816710485
:1016300079F6E6E0EE0EF11CFFEFCF1ADF0AC0CF1D
:10164000C7010F90DF91CF911F910F91FF90EF9005
:10165000DF90CF90BF90AF909F908F907F906F90D2
:1016600008959F92AF92BF92CF92DF92EF92FF9236
:101670000F931F93CF93DF936A01890197FF03C0F4
:101680009195819591097C01C0E0D0E02AE0922EED
:101690006115710509F446C05B0141E0A41AB10867
:1016A00080E090E021E030E001968617970739F05E
:1016B000A901949E9001959E300D1124F5CFC7018C
:1016C000B9010E94D517629FC001639F900D729F60
:1016D000900D1124E81AF90A6A30710500F5FB0132
:1016E000EA5AFF4FB6016C0F7D1FA8010C94E91751
:1016F00080E311C081E30FC082E30DC083E30BC020
:1017000084E309C085E307C086E305C087E303C01F
:1017100088E301C089E30E94BB09C80FD91F219645
:10172000B501B6CFCE01DF91CF911F910F91FF9000
:10173000EF90DF90CF90BF90AF909F9008959F92D1
:10174000AF92BF92CF92DF92EF92FF920F931F93CF
:10175000CF93DF936A01890197FF03C0919581952B
:1017600091097C01C0E0D0E03AE0932E611571054B
:1017700009F446C05B0141E0A41AB10880E090E0A2
:1017800021E030E001968617970739F0A901949E71
:101790009001959E300D1124F5CFC701B9010E942B
:1017A000D517629FC001639F900D729F900D112409
:1017B000E81AF90A6A30710500F5FB01E05AFF4F9B
:1017C000B6016C0F7D1FA8010C94E91780E311C0CE
:1017D00081E30FC082E30DC083E30BC084E309C043
:1017E00085E307C086E305C087E303C088E301C043
:1017F00089E30E940D0AC80FD91F2196B501B6CF03
:10180000CE01DF91CF911F910F91FF90EF90DF906C
:10181000CF90BF90AF909F9008958F929F92AF927C
:10182000BF92CF92DF92EF92FF920F931F93CF93CD
:10183000DF93CDB7DEB710E088891817DCF500E03C
:10184000C12EDD24C7FCD094ED2CFD2C8F8508170C
:101850007CF5298D3A8D4B8D5C8D60E070E080E4E5
:1018600092E40E9421184B015C01602F772767FDED
:101870007095872F972F0E943B199B01AC01C501E2
:10188000B4010E9422180E940D19B62EC701B6019C
:101890000E943B192D893E894F89588D0E9422183C
:1018A0000E940D19862F6B2D0E947A090F5FCECFF3
:1018B0001F5FC2CFDF91CF911F910F91FF90EF90EB
:1018C000DF90CF90BF90AF909F908F900895DF9260
:1018D000EF92FF920F931F93CF93DF9300D000D02E
:1018E0001F92CDB7DEB76B837C8310E3151BE42E0C
:1018F000612F82E0840F0E947A0901E08C81081731
:101900007CF4F12CD02ED10E8B81F8163CF46D2D89
:101910008F2D8E0D0E947A09F394F6CF0F5FEECFD4
:101920000F900F900F900F900F90DF91CF911F911C
:101930000F91FF90EF90DF9008954F925F927F920A
:101940008F929F92AF92BF92CF92DF92EF92FF92CF
:101950000F931F93CF93DF9300D000D0CDB7DEB7A6
:101960002C01FC018181883239F144F4843109F47D
:1019700022C18E31C1F08A3089F514C18C3309F44B
:1019800023C124F4823309F485C028C08634E9F0E9
:10199000803521F5ECE5CE2EEFE8DE2EE2ECEE2EE2
:1019A000EEEBFE2E7FC0B1E7CB2EBDE3DB2EBAE01F
:1019B000EB2EBFEBFB2E15C0ABE7CA2EA4E1DA2E4F
:1019C000AEE2EA2EAFEBFA2E0CC0F1E7CF2EFDE32C
:1019D000DF2EFAE0EF2EFFEBFF2E64C08D320CF00D
:1019E00061C0712C00E310E0F201808178160CF0E8
:1019F00059C0672D772767FD7095872F972F0E9415
:101A00003B19A70196010E94681A0E9486184B0193
:101A10005C01F2018381B801681B710987FD739530
:101A2000882777FD8095982F0E943B19A501940186
:101A30000E9422180E940D19F20196818281799EDE
:101A4000800D11240E947A09F2018081992787FD77
:101A500090950197272D332727FD309528173907B3
:101A6000B9F482818F5F9681799E800D11248483E1
:101A70006381772767FD7095872F972F0E943B1909
:101A8000A50194010E9421180E940819F2016583A2
:101A90007394AACF51E7C52E5DE3D52E5AE4E52E07
:101AA0005FEBF52EF20181818E320CF496C010E0CE
:101AB000F7FAF094F7F8F09400E3F2018081181738
:101AC0000CF08BC0F2012681332727FD3095A12F22
:101AD000BB27A7FDB0950E94EF170E943B19A701F5
:101AE00096010E94681A0E94131B9B01AC01F2012F
:101AF0008381B02EB81AB11A6281772767FD70957D
:101B0000872F972F29833A834B835C830E943B194D
:101B100029813A814B815C810E9422180E940D1913
:101B2000862F6B2D0E947A09F2018081992787FD0B
:101B300090950197212F332727FD309528173907D6
:101B400079F52681332727FD3095A12FBB27A7FDE7
:101B5000B0950E94EF170E943B19A70196010E94C1
:101B6000681A0E94131B9B01AC01F2016281772766
:101B700067FD7095872F972F29833A834B835C836A
:101B80000E943B1929813A814B815C810E94221875
:101B90000E940819F201648383818D5F810F858320
:101BA0001F5F8BCF7DECC72E7CECD72E7CE4E72E1D
:101BB0007EEBF72E16CF6CE5C62E6FE8D62E62ECC4
:101BC000E62E6EEBF62E0DCF4BE7C42E44E1D42E5D
:101BD0004EE2E42E4FEBF42E65CF0F900F900F9056
:101BE0000F90DF91CF911F910F91FF90EF90DF90B9
:101BF000CF90BF90AF909F908F907F905F904F90CD
:101C00000895DF92EF92FF920F931F93CF93DF938C
:101C1000182FF92EC0E0D0E3D81BCF1534F46D2F68
:101C20008C2F0E947A09CF5FF8CFC1E021E0DD243C
:101C3000D39400E3011BC1179CF4D0E0E02EEC0E1E
:101C4000DF155CF4213031F46E2D8D2F0E947A095E
:101C500020E001C021E0DF5FF3CF2D25CF5FEBCF88
:101C6000DF91CF911F910F91FF90EF90DF9008953A
:101C70004F925F926F927F928F929F92AF92BF929C
:101C8000CF92DF92EF92FF920F931F93CF93DF9348
:101C900000D000D01F92CDB7DEB749835A836B8343
:101CA000772E7C838D83B82E89809A80C12CD12C8D
:101CB00025E0A22E66246394670EF40180818823B8
:101CC000D1F100E010E0462C4C0CE12CF12C542C0E
:101CD000500EF4012081332727FD30952052310921
:101CE000A29EF001A39EF00D1124E00FF11FE3511D
:101CF000FD4F208130E00E2C02C0359527950A94C7
:101D0000E2F720FF05C06B2D6E0D852D0E947A092C
:101D1000FFEFEF1AFF0A88E0E816F104D1F60F5F33
:101D20001F4F0530110589F6E6E0CE0ED11CFFEFFE
:101D30008F1A9F0AC2CFF3E0CF0ED11CD12C00E046
:101D400010E088248A94912CC70C91E8692E712C9C
:101D50000115110519F00233110529F4E12CF12CBC
:101D6000AC2CAD0C16C08B8187FD8F5F85959927B4
:101D700087FD9095801791078CF7E12CF12CAC2C06
:101D8000AD0C16C08FEFE81AF80AE8E0EE16F10481
:101D900021F194010E2C02C0359527950A94E2F7A3
:101DA00020FFF0CF6B2D6E0D8A2D0E947A09EACFAD
:101DB00093010E2C02C0359527950A94E2F720FF77
:101DC00005C06B2D6E0D8A2D0E947A098FEFE81ADF
:101DD000F80AE8E0EE16F10459F70F5F1F4FD394AD
:101DE000F3E3DF12B5CF0F900F900F900F900F908D
:101DF000DF91CF911F910F91FF90EF90DF90CF90E7
:101E0000BF90AF909F908F907F906F905F904F901A
:101E10000895AF92BF92CF92DF92EF92FF920F930D
:101E20001F93CF93DF93CDB7DEB728970FB6F89403
:101E3000DEBF0FBECDBF29833A834B835C836D83A6
:101E40007E838F839887EB80FC800D811E81AF801D
:101E5000B884A801B70189819A810E945F0A4696D9
:101E60006C01B701680F791FA801B7FE13C08CE39E
:101E70000E94BB09C80ED91E82E0C80ED11CA70162
:101E80004C0D5D1D980162E070E0882799278A1942
:101E90009B090FC08EE30E94BB09C80ED91E82E0C9
:101EA000C80ED11CA7014C0D5D1D980162E070E0C9
:101EB000C5010E94310B8C0D9D1DB701680F791F64
:101EC000A80189E295E028960FB6F894DEBF0FBE10
:101ED000CDBFDF91CF911F910F91FF90EF90DF90D9
:101EE000CF90BF90AF900C945F0A8F929F92AF9269
:101EF000BF92CF92DF92EF92FF920F931F93CF93F7
:101F0000DF93CDB7DEB710E088891817DCF500E065
:101F1000C12EDD24C7FCD094ED2CFD2C8F85081735
:101F20007CF5298D3A8D4B8D5C8D60E070E080E40E
:101F300092E40E9421184B015C01602F772767FD16
:101F40007095872F972F0E943B199B01AC01C5010B
:101F5000B4010E9422180E940D19B62EC701B601C5
:101F60000E943B192D893E894F89588D0E94221865
:101F70000E940D19862F6B2D0E949A090F5FCECFFC
:101F80001F5FC2CFDF91CF911F910F91FF90EF9014
:101F9000DF90CF90BF90AF909F908F9008954F9219
:101FA0005F927F928F929F92AF92BF92CF92DF9279
:101FB000EF92FF920F931F93CF93DF9300D000D047
:101FC000CDB7DEB72C01FC018181883239F144F4B0
:101FD000843109F422C18E31C1F08A3089F514C1EF
:101FE0008C3309F423C124F4823309F485C028C05A
:101FF0008634E9F0803521F57CE5C72E7FE8D72EC1
:1020000072ECE72E7EEBF72E7FC0A1E7CA2EADE380
:10201000DA2EAAE0EA2EAFEBFA2E15C0FBE7CF2EA0
:10202000F4E1DF2EFEE2EF2EFFEBFF2E0CC0E1E726
:10203000CE2EEDE3DE2EEAE0EE2EEFEBFE2E64C0B8
:102040008D320CF061C0712C00E310E0F201808150
:1020500078160CF059C0672D772767FD7095872F8C
:10206000972F0E943B19A70196010E94681A0E94AF
:1020700086184B015C01F2018381B801681B71096C
:1020800087FD7395882777FD8095982F0E943B19CF
:10209000A50194010E9422180E940D19F201968157
:1020A0008281799E800D11240E949A09F20180811B
:1020B000992787FD90950197272D332727FD309588
:1020C00028173907B9F482818F5F9681799E800D38
:1020D000112484836381772767FD7095872F972F5D
:1020E0000E943B19A50194010E9421180E94081921
:1020F000F20165837394AACF41E7C42E4DE3D42E39
:102100004AE4E42E4FEBF42EF20181818E320CF47E
:1021100096C010E0F7FAF094F7F8F09400E3F201BB
:10212000808118170CF08BC0F2012681332727FD20
:102130003095A12FBB27A7FDB0950E94EF170E94F5
:102140003B19A70196010E94681A0E94131B9B016C
:10215000AC01F2018381B02EB81AB11A62817727DF
:1021600067FD7095872F972F29833A834B835C8374
:102170000E943B1929813A814B815C810E9422187F
:102180000E940D19862F6B2D0E949A09F201808101
:10219000992787FD90950197212F332727FD3095AB
:1021A0002817390779F52681332727FD3095A12F88
:1021B000BB27A7FDB0950E94EF170E943B19A7010E
:1021C00096010E94681A0E94131B9B01AC01F20148
:1021D0006281772767FD7095872F972F29833A8330
:1021E0004B835C830E943B1929813A814B815C813E
:1021F0000E9422180E940819F201648383818D5F76
:10220000810F85831F5F8BCF6DECC62E6CECD62EB5
:102210006CE4E62E6EEBF62E16CF5CE5C52E5FE87D
:10222000D52E52ECE52E5EEBF52E0DCF3BE7C32EFF
:1022300034E1D32E3EE2E32E3FEBF32E65CF0F9039
:102240000F900F900F90DF91CF911F910F91FF9002
:10225000EF90DF90CF90BF90AF909F908F907F9046
:102260005F904F9008954F925F926F927F928F92FE
:102270009F92AF92BF92CF92DF92EF92FF920F9315
:102280001F93CF93DF9300D000D01F92CDB7DEB75E
:1022900049835A836B83772E7C838D83B82E898004
:1022A0009A80C12CD12C95E0A92E66246394670EE8
:1022B000F40180818823D1F100E010E0462C4C0C21
:1022C000E12CF12C542C500EF4012081332727FDF2
:1022D000309520523109A29EF001A39EF00D1124E9
:1022E000E00FF11FE351FD4F208130E00E2C02C0C2
:1022F000359527950A94E2F720FF05C06B2D6E0DEA
:10230000852D0E949A09FFEFEF1AFF0A88E0E81670
:10231000F104D1F60F5F1F4F0530110589F6E6E095
:10232000CE0ED11CFFEF8F1A9F0AC2CFF3E0CF0E63
:10233000D11CD12C00E010E088248A94912CC70C89
:1023400081E8682E712C0115110519F00233110571
:1023500029F4E12CF12CAC2CAD0C13C08B81992706
:1023600087FD909580179107A4F7E12CF12CAC2CF8
:10237000AD0C16C08FEFE81AF80AE8E0EE16F1048B
:1023800021F194010E2C02C0359527950A94E2F7AD
:1023900020FFF0CF6B2D6E0D8A2D0E949A09EACF97
:1023A00093010E2C02C0359527950A94E2F720FF81
:1023B00005C06B2D6E0D8A2D0E949A098FEFE81AC9
:1023C000F80AE8E0EE16F10459F70F5F1F4FD394B7
:1023D000F3E3DF12B8CF0F900F900F900F900F9094
:1023E000DF91CF911F910F91FF90EF90DF90CF90F1
:1023F000BF90AF909F908F907F906F905F904F9025
:102400000895AF92BF92CF92DF92EF92FF920F9317
:102410001F93CF93DF93CDB7DEB728970FB6F8940D
:10242000DEBF0FBECDBF29833A834B835C836D83B0
:102430007E838F839887EB80FC800D811E81AF8027
:10244000B884A801B70189819A810E94C80A46967A
:102450006C01B701680F791FA801B7FE13C08CE3A8
:102460000E940D0AC80ED91E82E0C80ED11CA70119
:102470004C0D5D1D980162E070E0882799278A194C
:102480009B090FC08EE30E940D0AC80ED91E82E080
:10249000C80ED11CA7014C0D5D1D980162E070E0D3
:1024A000C5010E949F0B8C0D9D1DB701680F791F00
:1024B000A80189E295E028960FB6F894DEBF0FBE1A
:1024C000CDBFDF91CF911F910F91FF90EF90DF90E3
:1024D000CF90BF90AF900C94C80A2F923F924F922A
:1024E0005F926F927F928F929F92AF92BF92CF92A4
:1024F000DF92EF92FF920F931F93CF93DF93CDB7AD
:10250000DEB728970FB6F894DEBF0FBECDBF8C01A3
:102510005195419551094A83612C18861F8220E309
:10252000261B2983AA2797FDA095BA2F8B839C830E
:10253000AD83BE831A01442437FC4094542C8F8110
:10254000880F7980781A6B817C818D819E810E94B1
:102550003B196B017C01C201B1010E943B194B0187
:102560005C01AF81B885BD01882777FD8095982FE4
:102570000E943B1920E030E040EC5FE30E94681AC3
:102580009B01AC01C501B4010E94681A9B01AC011A
:10259000C701B6010E9422180E940D19E62E672D70
:1025A0008E2D0E947A09F62CF00E672D8F2D0E9439
:1025B0007A09672D802F0E947A090E949D040E944B
:1025C0004309BFEFE1EEF4E0B150E040F040E1F745
:1025D00000C00000672D8E2D0E949A09672D8F2D57
:1025E0000E949A09672D802F0E949A092F813885B1
:1025F0002F5F3F4F38872F833A81630E8F819885F5
:10260000049709F09CCF28960FB6F894DEBF0FBE52
:10261000CDBFDF91CF911F910F91FF90EF90DF9091
:10262000CF90BF90AF909F908F907F906F905F9072
:102630004F903F902F9008958F929F92AF92BF92AC
:10264000CF92DF92EF92FF92CF93DF93EC016C81F8
:102650008BE06802B0011124882777FD8095982FC0
:102660000E943B196B017C016A81772767FD709599
:10267000872F972F0E943B192DEC3CEC4CE951E43D
:102680000E94A0189B01AC01C701B6010E94681A04
:102690009B01AC010E9422180E94D51A6B017C019B
:1026A0006D81772767FD7095872F972F0E943B19C3
:1026B0002BED3FE049E450E40E94681A20E030E04E
:1026C00044E353E40E94A0184B015C010E949D1852
:1026D0009B01AC01C701B6010E94681A6E877F8713
:1026E000888B998BC501B4010E94CB1A9B01AC0168
:1026F000C701B6010E94681A6A8B7B8B8C8B9D8BFD
:10270000DF91CF91FF90EF90DF90CF90BF90AF908F
:102710009F908F9008954F925F926F927F928F92C9
:102720009F92AF92BF92CF92DF92EF92FF920F9360
:102730001F93CF93DF935B017A01E9012BE0AC019A
:10274000249FC001259F900D1124BC01882777FD8F
:102750008095982F0E943B192B013C01B7018827D7
:1027600077FD8095982F0E943B192DEC3CEC4CE9AD
:1027700051E40E94A0189B01AC01C301B2010E9468
:10278000681A9B01AC010E9422180E94D51A6B01A5
:102790007C01B501882777FD8095982F0E943B1911
:1027A0002BED3FE049E450E40E94681A20E030E05D
:1027B00044E353E40E94A0184B015C010E949D1861
:1027C0009B01AC01C701B6010E94681A6883798336
:1027D0008A839B83C501B4010E94CB1A9B01AC0183
:1027E000C701B6010E94681AF80160837183828371
:1027F0009383DF91CF911F910F91FF90EF90DF9026
:10280000CF90BF90AF909F908F907F906F905F9090
:102810004F9008954F925F926F927F928F929F9206
:10282000AF92BF92CF92DF92EF92FF920F931F93DE
:10283000CF93DF934B015C01CA01B901E7010E940C
:1028400022182DEC3CEC4CE951E40E94A0186B01DD
:102850007C019B01AC01C501B4010E94681A4B01C7
:102860005C01B801882777FD8095982F0E943B195D
:1028700020E030E040E85EE30E94681A905820E0D3
:1028800030E040E05FE30E94681A2B013C01A701A1
:102890009601C701B6010E94681A9B01AC01C301F1
:1028A000B2010E94681A9B01AC01C501B4010E94EB
:1028B00022180E940819CE0101976817790744F47D
:1028C000259781E090E06C177D0724F480E002C03A
:1028D00080E090E0DF91CF911F910F91FF90EF90FA
:1028E000DF90CF90BF90AF909F908F907F906F9030
:1028F0005F904F9008958F929F92AF92BF92CF9228
:10290000DF92EF92FF920F931F93CF93DF93EC012F
:102910008B0188EE93E0BA010E94D517882777FDD6
:102920008095982F0E943B196B017C019B01AC01A3
:102930006DEC7CEC8CE991E40E94A0189B01AC0149
:102940006A897B898C899D890E9421186A8B7B8B7F
:102950008C8B9D8B2B812003B001219F700D112446
:10296000882777FD8095982F0E943B194B015C01C9
:102970006A81772767FD7095872F972F0E943B19F3
:102980002DEC3CEC4CE45CE30E94681A9B01AC012A
:10299000C501B4010E94681AA70196010E94A018FF
:1029A0009B01AC016E857F85888999890E942218D8
:1029B0006E877F87888B998BDF91CF911F910F91C5
:1029C000FF90EF90DF90CF90BF90AF909F908F904F
:1029D00008958F929F92AF92BF92CF92DF92EF9223
:1029E000FF92CF93DF93EC0188EE93E00E94D5171E
:1029F000882777FD8095982F0E943B196B017C01F9
:102A00006B81772767FD7095872F972F0E943B1961
:102A10004B015C01A70196016E857F8588899989A4
:102A20000E94A0189B01AC01C501B4010E94681A64
:102A30009B01AC016E817F81888599850E94221857
:102A40006E837F8388879987A70196016A897B892E
:102A50008C899D890E94A0189B01AC016A857B85A9
:102A60008C859D850E9422186A877B878C879D872D
:102A7000DF91CF91FF90EF90DF90CF90BF90AF901C
:102A80009F908F9008952F923F924F925F926F92F6
:102A90007F928F929F92AF92BF92CF92DF92EF92EE
:102AA000FF920F931F93CF93DF93CDB7DEB72A9793
:102AB0000FB6F894DEBF0FBECDBF2FAD2D8321968C
:102AC0003FAD21973A8738A01AA1CDA0DEA0EFA094
:102AD000F8A489A49AA4ABA4BCA40DA92FA84AADBC
:102AE00049876F8D772767FD7095872F972F0E94F5
:102AF0003B199B01AC01C501B4010E9421186983F7
:102B00007A838B839C8320E030E040E85FE30E947F
:102B100022182B013C015D81652F772767FD709599
:102B2000872F972F0E943B199B01AC01C301B20173
:102B30000E94991887FFCCC0113009F060C0622D47
:102B4000772767FD7095600F711D07FD7A958827BF
:102B500077FD8095982F0E943B199B01AC01C7011E
:102B6000B6010E94641A1816ACF4C501B4010E94A3
:102B700008194B015C0120E030E040E85FE3C70149
:102B8000B6010E9422180E940819DC01CB0141E025
:102B900050E09AC0632D772767FD7095872F972F98
:102BA0000E943B199B01AC01C701B6010E9422188B
:102BB0002B013C01602F772767FD7095872F972F9A
:102BC0000E943B199B01AC01C301B2010E949918FC
:102BD00087FF7EC0C501B4010E9408194B015C014A
:102BE00020E030E040E85FE3C701B6010E94221810
:102BF0000E940819DC01CB0141E050E02DC01F3FCD
:102C000009F066C0622D772767FD7095600F711D12
:102C100007FD7A95882777FD8095982F0E943B19AC
:102C20009B01AC01C701B6010E94641A1816C4F4D6
:102C3000C501B4010E9408194B015C0120E030E09D
:102C400040E85FE3C701B6010E9421180E940819FD
:102C5000DC01CB014FEF5FEFB4010E946D1276C132
:102C6000632D772767FD7095872F972F0E943B195B
:102C70009B01AC01C701B6010E9422182B013C0147
:102C8000602F772767FD7095872F972F0E943B193C
:102C90009B01AC01C301B2010E94991887FF18C0C3
:102CA000C501B4010E9408194B015C0120E030E02D
:102CB00040E85FE3C701B6010E9421180E9408198D
:102CC000DC01CB014FEF5FEFB4010E946D123BC1FD
:102CD0002985622F772767FD7095872F972F0E9490
:102CE0003B199B01AC01C701B6010E94641A232D58
:102CF000332727FD3095432F532F2D833E834F835A
:102D0000588718160CF062C0CA01B9010E943B191D
:102D10009B01AC01C701B6010E9422182B013C01A6
:102D20006CAD772767FD70953985630F711D37FD91
:102D30007A95882777FD8095982F0E943B199B01F3
:102D4000AC01C301B2010E94991887FF3FC020E087
:102D500030E040E050E469817A818B819C810E945F
:102D600022182B013C016BAD772767FD7095872FEB
:102D7000972F0E943B199B01AC01C301B2010E9435
:102D8000991887FF23C0612E772467FC7094C501D2
:102D9000B4010E9408194B015C01612F772767FD80
:102DA0007095872F972F0E943B199B01AC01C7019B
:102DB000B6010E9422180E940819DC01CB01A30170
:102DC000B4010E946D1282E090E0C2C06D817E81EC
:102DD0008F8198850E943B199B01AC01C701B60108
:102DE0000E9422182B013C01602F772767FD709508
:102DF000872F972F0E943B199B01AC01C301B201A1
:102E00000E94641A18160CF059C0622D772767FDCE
:102E10007095600F711D07FD7A95882777FD809565
:102E2000982F0E943B199B01AC01C701B6010E947B
:102E3000991887FF43C020E030E040E050E469810A
:102E40007A818B819C810E94221869837A838B838B
:102E50009C836EA9772767FD7095872F972F0E9417
:102E60003B199B01AC0169817A818B819C810E9415
:102E7000991887FF23C0612E772467FC7094C501E1
:102E8000B4010E9408194B015C01612F772767FD8F
:102E90007095872F972F0E943B199B01AC01C701AA
:102EA000B6010E9422180E940819DC01CB01A3017F
:102EB000B4010E946D1281E090E04AC0113011F51A
:102EC0004A85642F772767FD70956C5E7F4F882752
:102ED00077FD8095982F0E943B199B01AC01C7019B
:102EE000B6010E94641A181674F120E030E040EA3E
:102EF00051ECC301B2010E94991887FD27C08FEFE2
:102F00009FEF26C01F3FD9F75A85652F772767FDAA
:102F100070956C5E7F4F882777FD8095982F0E9473
:102F20003B199B01AC01C701B6010E94641A181637
:102F30006CF020E030E040EA51ECC301B2010E94A5
:102F4000991887FFDCCF84E090E002C083E090E036
:102F50002A960FB6F894DEBF0FBECDBFDF91CF919A
:102F60001F910F91FF90EF90DF90CF90BF90AF90A7
:102F70009F908F907F906F905F904F903F902F9099
:102F800008950E9452018FEF8F3F11F40E9490012B
:102F9000813011F40E94DB07823011F40E94AD01F0
:102FA000833091F70E94D501EFCF97FB072E16F4DF
:102FB000009407D077FD09D00E940D1807FC05D0BA
:102FC0003EF4909581959F4F0895709561957F4F40
:102FD0000895EE0FFF1F0590F491E02D09940E94D3
:102FE000F717332312F48A1B9B0B0C940818A29F2B
:102FF000B001B39FC001A39F700D811D1124911DCD
:10300000B29F700D811D1124911D08950E94F71724
:10301000B7FF0895821B930B0895AA1BBB1B51E1B8
:1030200007C0AA1FBB1FA617B70710F0A61BB70B38
:10303000881F991F5A95A9F780959095BC01CD01DD
:1030400008955058BB27AA270ED0DCC1A5D130F077
:10305000AAD120F031F49F3F11F41EF49AC10EF46E
:10306000E095E7FB67C1E92FEFD180F3BA1762075C
:1030700073078407950718F071F49EF51EC20EF4CD
:10308000E0950B2EBA2FA02D0B01B90190010C0178
:10309000CA01A0011124FF27591B99F0593F50F490
:1030A000503E68F11A16F040A22F232F342F4427E8
:1030B000585FF3CF469537952795A795F0405395E0
:1030C000C9F77EF41F16BA0B620B730B840BBAF0B0
:1030D0009150A1F0FF0FBB1F661F771F881FC2F71B
:1030E0000EC0BA0F621F731F841F48F4879577952F
:1030F0006795B795F7959E3F08F0B3CF9395880FE6
:1031000008F09927EE0F979587950895BFD180F025
:103110009F3740F491110EF4D1C160E070E080E877
:103120009FE3089526F01B16611D711D811D08C1C6
:1031300022C1DCD008F481E008953DD1E39573C14C
:103140000CD060C130D140F027D130F021F45F3F86
:1031500019F0F0C05111B2C11CC176D198F3992376
:10316000C9F35523B1F3951B550BBB27AA2762174B
:103170007307840738F09F5F5F4F220F331F441F90
:10318000AA1FA9F333D00E2E3AF0E0E830D09150C8
:103190005040E695001CCAF729D0FE2F27D0660FB5
:1031A000771F881FBB1F261737074807AB07B0E8F4
:1031B00009F0BB0B802DBF01FF2793585F4F2AF00A
:1031C0009E3F510568F0B6C079C15F3FECF3983E71
:1031D000DCF3869577956795B795F7959F5FC9F767
:1031E000880F911D9695879597F90895E1E0660FF0
:1031F000771F881FBB1F621773078407BA0720F069
:10320000621B730B840BBA0BEE1F88F7E0950895D1
:1032100004D06894B11152C108951ED188F09F570F
:1032200090F0B92F9927B751A0F0D1F0660F771F12
:10323000881F991F1AF0BA95C9F712C0B13081F0F2
:103240003CD1B1E0089539C1672F782F8827B85F46
:1032500039F0B93FCCF3869577956795B395D9F753
:103260003EF490958095709561957F4F8F4F9F4F5D
:103270000895E89409C097FB3EF490958095709569
:1032800061957F4F8F4F9F4F9923A9F0F92F96E9B2
:10329000BB279395F695879577956795B795F11127
:1032A000F8CFFAF4BB0F11F460FF1BC06F5F7F4FC4
:1032B0008F4F9F4F16C0882311F096E911C07723D6
:1032C00021F09EE8872F762F05C0662371F096E8DF
:1032D000862F70E060E02AF09A95660F771F881FAE
:1032E000DAF7880F9695879597F90895990F000852
:1032F000550FAA0BE0E8FEEF16161706E807F907C8
:10330000C0F012161306E407F50798F0621B730B62
:10331000840B950B39F40A2661F0232B242B252BE3
:1033200021F408950A2609F4A140A6958FEF811D86
:10333000811D089597F99F6780E870E060E0089527
:10334000882371F4772321F09850872B762F07C0BC
:10335000662311F499270DC09051862B70E060E030
:103360002AF09A95660F771F881FDAF7880F9695CF
:10337000879597F908959F3F31F0915020F48795F4
:1033800077956795B795880F911D9695879597F9CD
:1033900008959FEF80EC089500240A9416161706EE
:1033A00018060906089500240A9412161306140636
:1033B00005060895EECF50D0E8F3E894E0E0BB278F
:1033C0009F57F0F02AED3FE049EC06C0EE0FBB0F2F
:1033D000661F771F881F28F0B23A620773078407B9
:1033E00028F0B25A620B730B840BE3959A9572F72F
:1033F000803830F49A95BB0F661F771F881FD2F76D
:103400009048BBCF092E0394000C11F4882352F08E
:10341000BB0F40F4BF2B11F460FF04C06F5F7F4F00
:103420008F4F9F4F0895EF93E0FF06C0A2EA2AED69
:103430003FE049EC5FEB17DEE5DF0F90039401FC02
:103440009058E4EDF0E0FDC057FD9058440F551F33
:1034500059F05F3F71F04795880F97FB991F61F016
:103460009F3F79F087950895121613061406551F8D
:10347000F2CF4695F1DF08C0161617061806991FF9
:10348000F1CF86957105610508940895E5DFA0F0F8
:10349000BEE7B91788F4BB279F3860F41616B11D34
:1034A000672F782F8827985FF7CF86957795679550
:1034B000B11D93959639C8F30895E894BB27662704
:1034C0007727CB0197F9089511DF08F48FEF08955E
:1034D0000BD098CF61DF28F066DF18F0952309F054
:1034E00029CF57CF1124EACFAFDFA0F3959FD1F3B7
:1034F000950F50E0551F629FF001729FBB27F00DA2
:10350000B11D639FAA27F00DB11DAA1F649F6627F6
:10351000B00DA11D661F829F2227B00DA11D621F45
:10352000739FB00DA11D621F839FA00D611D221FFF
:10353000749F3327A00D611D231F849F600D211DE3
:10354000822F762F6A2F11249F5750408AF0E1F086
:1035500088234AF0EE0FFF1FBB1F661F771F881FCF
:1035600091505040A9F79E3F510570F0E3CEA6CF91
:103570005F3FECF3983EDCF3869577956795B795BA
:10358000F795E7959F5FC1F7FE2B880F911D9695E4
:10359000879597F908959F930EDF0F9007FCEE5FD4
:1035A00042CF11F40EF4F5CEE6CE56DFD0F39923D8
:1035B000D9F3CEF39F57550B87FF3CD00024A0E6EC
:1035C00040EA900180585695979528F4805C660FE4
:1035D000771F881F20F026173707480730F4621B33
:1035E000730B840B202931294A2BA6951794079435
:1035F000202531254A2758F7660F771F881F20F0AE
:1036000026173707480730F4620B730B840B200D25
:10361000311D411DA09581F7B901842F9158880F64
:1036200096958795089532DF20F09F3708F446CFAE
:1036300087CEA1CE91505040660F771F881FD2F7DA
:1036400008959F938F937F936F93FF93EF939B01C5
:10365000AC013EDFEF91FF9105D02F913F914F914B
:103660005F9136CFDF93CF931F930F93FF92EF922B
:10367000DF927B018C01689405C0DA2EEF0134DF04
:10368000FE01E894A5912591359145915591AEF3B0
:10369000EF01E9DCFE019701A801DA9479F7DF90E8
:1036A000EF90FF900F911F91CF91DF9108958F922E
:1036B0009F92AF92BF92CF92DF92EF92FF92CF9301
:1036C000DF93EC01688179818A819B8161157105A5
:1036D0008105910521F464E279ED8BE597E02DE118
:1036E00033EF41E050E00E94B51B49015A019B01B4
:1036F000AC01A7EAB1E40E94D41B6B017C01ACEEE3
:10370000B4EFA50194010E94E21BC60ED71EE81E6D
:10371000F91EF7FE06C081E0C81AD108E10880E86A
:10372000F80AC882D982EA82FB82C6019F77DF91BC
:10373000CF91FF90EF90DF90CF90BF90AF909F9090
:103740008F9008950E94571B089589E091E00E9490
:10375000571B0895A0E0B0E08093090190930A01FF
:10376000A0930B01B0930C010895052E97FB1EF456
:1037700000940E94CC1B57FD07D00E94E71B07FC5A
:1037800003D04EF40C94CC1B509540953095219568
:103790003F4F4F4F5F4F089590958095709561957D
:1037A0007F4F8F4F9F4F08950E94F717A59F900D51
:1037B000B49F900DA49F800D911D11240895B7FF13
:1037C0000C94D41B0E94D41B821B930B0895A1E27E
:1037D0001A2EAA1BBB1BFD010DC0AA1FBB1FEE1F8B
:1037E000FF1FA217B307E407F50720F0A21BB30BD6
:1037F000E40BF50B661F771F881F991F1A9469F752
:1038000060957095809590959B01AC01BD01CF01AD
:063810000895F894FFCFBB
:103816000564000A0050000A0001000000000000D4
:10382600000000005F00000007000700147F147FFF
:1038360014242A7F2A12231308646236495522501B
:103846000005030000001C2241000041221C001458
:10385600083E081408083E08080050300000080812
:10386600080808006060000020100804023E514964
:10387600453E00427F400042615149462141454B49
:10388600311814127F1027454545393C4A494930BD
:1038960001710905033649494936064949291E0079
:1038A6003636000000563600000814224100141473
:1038B60014141400412214080201510906324979F0
:1038C600413E7E1111117E7F494949363E414141B3
:1038D600227F4141221C7F494949417F090909014B
:1038E6003E4149497A7F0808087F00417F41002010
:1038F60040413F017F081422417F404040407F0203
:103906000C027F7F0408107F3E4141413E7F09093A
:1039160009063E4151215E7F091929464649494912
:103926003101017F01013F4040403F1F2040201FE1
:103936003F4038403F631408146307087008076166
:1039460051494543007F41410002040810200041CF
:10395600417F000402010204404040404000010251
:10396600040020545454787F48444438384444442E
:1039760020384444487F3854545418087E090102BC
:103986000C5252523E7F0804047800447D400020C9
:1039960040443D007F1028440000417F40007C04E5
:1039A6001804787C0804047838444444387C141499
:1039B6001408081414187C7C080404084854545449
:1039C60020043F4440203C4040207C1C2040201CDA
:1039D6003C4030403C44281028440C5050503C4455
:1039E60064544C44000836410000007F000000414A
:1039F600360800081C2200000000221C08000000F7
:103A0600000000005F00000007000700147F147F1D
:103A160014242A7F2A122313086462364955225039
:103A26000005030000001C2241000041221C001476
:103A3600083E081408083E08080050300000080830
:103A4600080808006060000020100804023E514982
:103A5600453E00427F400042615149462141454B67
:103A6600311814127F1027454545393C4A494930DB
:103A760001710905033649494936064949291E0097
:103A86003636000000563600000814224100141491
:103A9600141414004122140802015109063249790E
:103AA600413E7E1111117E7F494949363E414141D1
:103AB600227F4141221C7F494949417F0909090169
:103AC6003E4149497A7F0808087F00417F4100202E
:103AD60040413F017F081422417F404040407F0221
:103AE6000C027F7F0408107F3E4141413E7F090959
:103AF60009063E4151215E7F091929464649494931
:103B06003101017F01013F4040403F1F2040201FFF
:103B16003F4038403F631408146307087008076184
:103B260051494543007F41410002040810200041ED
:103B3600417F00040201020440404040400001026F
:103B4600040020545454787F48444438384444444C
:103B560020384444487F3854545418087E090102DA
:103B66000C5252523E7F0804047800447D400020E7
:103B760040443D007F1028440000417F40007C0403
:103B86001804787C0804047838444444387C1414B7
:103B96001408081414187C7C080404084854545467
:103BA60020043F4440203C4040207C1C2040201CF8
:103BB6003C4030403C44281028440C5050503C4473
:103BC60064544C44000836410000007F0000004168
:103BD600360800081C2200000000221C0853636FF0
:103BE600726368656421006E3931343638393000C5
:103BF6004C656F6E2050656172636500506C61792B
:103C060065722057696E2100506C61796572204C8F
:103C16006F73652100504C41594552205455524E00
:103C26002100454E454D59205455524E2100506FA6
:0E3C36007765720057494E44006D2F730000F1
:00000001FF
